:1009A8000808A4C0C079C024A4991110A4C0A4C088
:1009B800C0F9B0B092F8FFFFFFFFFFFFFF0A21C0A8
:0909C800F9A4B0999282F8809024
:10090F00C2B120B60F7F327E001209DA20B6F31281
:10091F00095C80FB20B50F7F327E001209DA20B50B
:10092F00E112054680FB20B7127F327E001209DAF2
:10093F0020B7CF20B7CC12072380F820B4C47F3262
:0D094F007E001209DA20B4BA12000380FB0A
:10072300E4F52BC3E52B9403748094805052E4F5D5
:100733002CC3E52C9408748094805019AF2CA8071F
:100743007401088002C333D8FCF4F590052C120918
:10075300D6052C80DCE4F52CC3E52C940874809436
:10076300805019AF2CA8077402088002C333D8FC49
:10077300F4F590052C1209D6052C80DC052B80A3FB
:10078300E4F52BC3E52B940374809480504AE4F57D
:100793002CC3E52C9408748094805015AF2CA807C3
:1007A3007401088002C333D8FCF41209D4052C80E9
:1007B300E0E4F52CC3E52C9408748094805015AFC5
:1007C3002CA8077480088002C313D8FCF41209D440
:1007D300052C80E0052B80ABE4F52BC3E52B9403BC
:1007E300748094805035E4F52CC3E52C9404748014
:1007F30094805023AF2CA8077480088002C313D8B9
:10080300FCF4FFAE2CA8067401088002C333D8FCA5
:100813001209D2052C80D2052B80C0E4F52BC3E549
:100823002B9403748094805035E4F52CC3E52C9409
:1008330004748094805023AF2CA80774100880029E
:10084300C333D8FCF4FFAE2CA8067408088002C397
:1008530013D8FC1209D2052C80D2052B80C0E4F5F5
:100863002BC3E52B9403748094805013E4F5907F9D
:0F0873001EFE1209DA7590FF1209D6052B80E2DE
:010882002253
:10095C0075A0018523801209FC75A00285218012E7
:10096C0009FC75A0048521801209FC75A00875800E
:10097C00791209FC75A0108521801209FC75A02044
:10098C007580241209FC75A0408523801209FC7522
:0C099C00A0808525807F147E00020A00E8
:10054600E4F52BF52C75A0801209F9052CE52C7025
:1005560002052BC394D0E52B940740E9E4F52DF56D
:100566002E75A0401209F975A0808509801209FC34
:10057600052EE52E7002052DC394DCE52D9405406D
:10058600E0E4F52FF53075A0201209F975A0408535
:1005960009801209FC75A080850A801209FC0530C5
:1005A600E5307002052FC3944CE52F940440D7E440
:1005B600F531F53275A0101209F975A0208509806C
:1005C6001209FC75A040850A801209FC75A0808579
:1005D6000B801209FC0532E53270020531C3942006
:1005E600E531940340CEE4F533F53475A0081209DD
:1005F600F975A0108509801209FC75A020850A806E
:100606001209FC75A040850B801209FC75A0808537
:100616000C801209FC0534E53470020533C3949A44
:10062600E533940240C5E4F535F53675A0041209A4
:10063600F975A0088509801209FC75A010850A8045
:100646001209FC75A020850B801209FC75A0408557
:100656000C801209FC75A080850D801209FC0536F8
:10066600E53670020535C39426E535940240BCE4B0
:10067600F537F53875A0021209F975A004850980C9
:100686001209FC75A008850A801209FC75A0108560
:100696000B801209FC75A020850C801209FC75A040
:1006A60040850D801209FC75A080850E801209FC1C
:1006B6000538E53870020537C394F4E537940140F0
:1006C600B3E4F539F53A75A0011209F975A002856A
:1006D60009801209FC75A004850A801209FC75A020
:1006E60008850B801209FC75A010850C801209FC88
:1006F60075A020850D801209FC75A040850E80121C
:1007060009FC75A080850F801209FC053AE53A7050
:0C071600020539C394A0E539940F40AAF5
:0107220022B4
:10000300E4F52BF52C75A0808510801209FC052CD6
:10001300E52C7002052BC394D0E52B940740E6E44E
:10002300F52DF52E75A0408510801209FC75A08072
:100033008511801209FC052EE52E7002052DC3944F
:10004300DCE52D940540DDE4F52FF53075A0208522
:1000530010801209FC75A0408511801209FC75A05F
:10006300808512801209FC0530E5307002052FC32C
:10007300944CE52F940440D4E4F531F53275A01087
:100083008510801209FC75A0208511801209FC756A
:10009300A0408512801209FC75A080851380120987
:1000A300FC0532E53270020531C39420E531940337
:1000B30040CBE4F533F53475A0088510801209FCB4
:1000C30075A0108511801209FC75A020851280127D
:1000D30009FC75A0408513801209FC75A080851466
:1000E300801209FC0534E53470020533C3949AE5A4
:1000F30033940240C2E4F535F53675A004851080CB
:100103001209FC75A0088511801209FC75A01085E1
:1001130012801209FC75A0208513801209FC75A0BA
:10012300408514801209FC75A0808515801209FC96
:100133000536E53670020535C39426E5359402404D
:10014300B9E4F537F53875A0028510801209FC75FE
:10015300A0048511801209FC75A00885128012097C
:10016300FC75A0108513801209FC75A020851480EE
:100173001209FC75A0408515801209FC75A08085C5
:1001830016801209FC0538E53870020537C394F46C
:10019300E537940140B0E4F539F53A75A0018510CF
:1001A300801209FC75A0028511801209FC75A00458
:1001B3008512801209FC75A0088513801209FC754D
:1001C300A0108514801209FC75A0208515801209E2
:1001D300FC75A0408516801209FC75A080851780E8
:1001E3001209FC053AE53A70020539C394A4E539CE
:1001F300940140A7E4F53BF53C75A00185118012FD
:1002030009FC75A0028512801209FC75A0048513F0
:10021300801209FC75A0088514801209FC75A010D2
:100223008515801209FC75A0208516801209FC75BE
:10023300A0408517801209FC75A0808518801209DB
:10024300FC053CE53C7002053BC394A4E53B9401EB
:1002530040A7E4F53DF53E75A0018512801209FC27
:1002630075A0028513801209FC75A0048514801201
:1002730009FC75A0088515801209FC75A010851668
:10028300801209FC75A0208517801209FC75A04017
:100293008518801209FC75A0808519801209FC0558
:1002A3003EE53E7002053DC394A4E53D940140A79D
:1002B300E4F53FF54075A0018513801209FC75A094
:1002C300028514801209FC75A0048515801209FCAF
:1002D30075A0088516801209FC75A0108517801279
:1002E30009FC75A0208518801209FC75A0408519AA
:1002F300801209FC75A080851A801209FC0540E56F
:10030300407002053FC394A4E53F940140A7E4F580
:1003130041F54275A0018514801209FC75A0028580
:1003230015801209FC75A0048516801209FC75A0BE
:10033300088517801209FC75A0108518801209FC26
:1003430075A0208519801209FC75A040851A8012BA
:1003530009FC75A080851B801209FC0542E54270EB
:10036300020541C394A4E541940140A7E4F543F594
:100373004475A0018515801209FC75A002851680BD
:100383001209FC75A0048517801209FC75A0088565
:1003930018801209FC75A0108519801209FC75A03C
:1003A30020851A801209FC75A040851B801209FC68
:1003B30075A080851C801209FC0544E54470020584
:1003C30043C394A4E543940140A7E4F545F546757A
:1003D300A0018516801209FC75A0028517801209F9
:1003E300FC75A0048518801209FC75A00885198086
:1003F3001209FC75A010851A801209FC75A02085CE
:100403001B801209FC75A040851C801209FC75A095
:1004130080851D801209FC0546E54670020545C32B
:1004230094A4E545940140A7E4F547F54875A00178
:100433008517801209FC75A0028518801209FC75C6
:10044300A0048519801209FC75A008851A80120979
:10045300FC75A010851B801209FC75A020851C80EB
:100463001209FC75A040851D801209FC75A08085CA
:100473001E801209FC0548E54870020547C394A491
:10048300E547940140A7E4F549F54A75A0018518AD
:10049300801209FC75A0028519801209FC75A0045D
:1004A300851A801209FC75A008851B801209FC754A
:1004B300A010851C801209FC75A020851D801209DF
:1004C300FC75A040851E801209FC75A080851F80E5
:1004D3001209FC054AE54A70020549C394A4E5499B
:1004E300940140A7E4F54BF54C75A00185198012E2
:1004F30009FC75A002851A801209FC75A004851BEE
:10050300801209FC75A008851C801209FC75A010D7
:10051300851D801209FC75A020851E801209FC75BB
:10052300A040851F801209FC75A0808520801209D8
:10053300FC054CE54C7002054BC394C8E54B940095
:0205430040A7CF
:010545002293
:0709F9008508807F147E00D9
:0B0A0000EF1FAC0670011E4C70F622C8
:0809D200F45FF5907F1E7E002A
:1009DA00E4FDFCC3ED9FEC9E50147B4D7A03EB1BA8
:0E09EA0070011AEB4A70F70DBD00010C80E59C
:0109F80022DC
:0300000002088370
:0C088300787FE4F6D8FD75814C0208CAAD
:10088F0002090FE493A3F8E493A34003F68001F267
:10089F0008DFF48029E493A3F85407240CC8C3336A
:1008AF00C4540F4420C8834004F456800146F6DF39
:1008BF00E4800B01020408102040809009A8E47E18
:1008CF00019360BCA3FF543F30E509541FFEE4932E
:1008DF00A360010ECF54C025E060A840B8E493A3F5
:1008EF00FAE493A3F8E493A3C8C582C8CAC583CA20
:1008FF00F0A3C8C582C8CAC583CADFE9DEE780BED8
:0109D1000025
:00000001FF
